:1000000004C004C003C002C001C055C0F9CF08E05D
:100010001DE72AEF2A950000E9F71A95D1F70A950E
:10002000B9F70895202F12B11E7F12B940E0022FB8
:100030000170000F000F32B13B7F302B32B912B18B
:10004000116012B900001E7F12B9000026954F5FA3
:10005000493069F70895DBDFDADFD9DF00E0E2DF5E
:10006000D6DF089500B10270003021F500E0DADF3C
:10007000CEDFCDDFCCDF0FE4D5DFEDDF0EE4D2DF66
:10008000EADF05E4CFDFE7DF0FE4CCDFE4DF06E4FF
:10009000C9DFE1DF01E4C6DFDEDF0BE4C3DFDBDF66
:1000A00009E4C0DFD8DF0EE4BDDFD5DF04E4BADF4A
:1000B000D2DFADDF08950DEF01B980E002B10B6F23
:1000C00002B902E003B90FE0ADDFA1DF00EFAADF64
:1000D0009EDF0FE0A7DF9BDF00EFA4DF98DF0FE0DC
:1000E000A1DF95DF00EF9EDF92DF80E0BBDF082F0E
:0E00F00099DF8F5F8CDF8F3F09F0F8CFE4CFF0
:00000001FF
